:100000000CC0FFFFFFFFFFFFFFFFFFFFFFFFFFFF32
:10001000FFFFC3C0FFFFFFFFFFFF52E05EBF5FE5D2
:100020005DBF50E95AB957E159B9789450E05093FF
:1000300060005093610050936200509363005093AE
:10004000640050936500509366005093670050938E
:1000500068005093690050936A0050936B0050936E
:100060006C0050936D0050936E0050936F0050934E
:10007000700050937100FF27552777275FBB5EBB49
:100080000FEF07BB0ABB03D09FD0FFCF6FC00F930A
:100090005F934F937F931F932F933F938F939F93E0
:1000A000AF93BF93CF93DF93FF935F920F921F9213
:1000B0006F93FF9318E0012E10E1112EFF270FE53B
:1000C000E0916000E13011F35EBA61E06CBB1DB3FA
:1000D000212F1695312F1695812F1695912F169554
:1000E000A12F1695B12F1695C12F1695D12F2170DE
:1000F000317081709170A170B170C170D1704AD0AF
:1001000028BB48D0202928BB45D038BB43D0302954
:1001100038BB40D088BB3ED0802988BB3BD098BB41
:1001200039D0902998BB36D0A8BB34D0A029A8BB21
:1001300031D0B8BB2FD0B029B8BB2CD0C8BB2AD087
:10014000C029C8BB27D0D8BB25D0D029D8BB22D046
:1001500018BA7BBB739553955F705F3021F40A9595
:1001600011F4F395ACCF552E5F0EAACFFF916F918E
:100170001F900F905F90FF91DF91CF91BF91AF9152
:100180009F918F913F912F911F917F914F915F91FF
:100190000F9108950F930F9108950F931F93DF937D
:1001A000CF93D0E0C2E601E00093600000916100CF
:1001B000C00F1CB1188303950F7000936100CF919D
:1001C000DF911F910F9118950F935F934F937F933A
:1001D0001F932F933F938F939F93AF93BF93CF938F
:1001E000DF93FF935F920F921F926F93EF93FF93B2
:1001F0007727E2E6F0E018E0012E10E1112E1081E1
:10020000212F1695312F1695812F1695912F169522
:10021000A12F1695B12F1695C12F1695D12F2170AC
:10022000317081709170A170B170C170D170B2DF06
:1002300028BBB0DF202928BBADDF38BBABDF3029BE
:1002400038BBA8DF88BBA6DF802988BBA3DF98BBAB
:10025000A1DF902998BB9EDFA8BB9CDFA029A8BB8B
:1002600099DFB8BB97DFB029B8BB94DFC8BB92DF7A
:10027000C029C8BB8FDFD8BB8DDFD029D8BB8ADFB0
:1002800018BA7BBB73957F70E2E6E70FB8CFFF919A
:10029000EF916F911F900F905F90FF91DF91CF9141
:1002A000BF91AF919F918F913F912F911F917F911E
:1002B0004F915F910F910895FFFFFFFFFFFFFFFF39
:1002C000FFFFFFFFFFFFFFFFFFFFFFFFFFFFFFFF3E
:1002D000FFFFFFFFFFFFFFFFFFFFFFFFFFFFFFFF2E
:1002E000FFFFFFFFFFFFFFFFFFFFFFFFFFFFFFFF1E
:1002F000FFFFFFFFFFFFFFFFFFFFFFFFFFFFFFFF0E
:00000001FF
